{
  "_format": "hh-sol-artifact-1",
  "contractName": "Escrow",
  "sourceName": "contracts/Escrow.sol",
  "abi": [
    {
      "inputs": [
        {
          "internalType": "address",
          "name": "_arbiter",
          "type": "address"
        },
        {
          "internalType": "address payable",
          "name": "_beneficiary",
          "type": "address"
        }
      ],
      "stateMutability": "payable",
      "type": "constructor"
    },
    {
      "anonymous": false,
      "inputs": [
        {
          "indexed": false,
          "internalType": "uint256",
          "name": "balance",
          "type": "uint256"
        }
      ],
      "name": "Approved",
      "type": "event"
    },
    {
      "inputs": [],
      "name": "approve",
      "outputs": [],
      "stateMutability": "nonpayable",
      "type": "function"
    },
    {
      "inputs": [],
      "name": "arbiter",
      "outputs": [
        {
          "internalType": "address",
          "name": "",
          "type": "address"
        }
      ],
      "stateMutability": "view",
      "type": "function"
    },
    {
      "inputs": [],
      "name": "beneficiary",
      "outputs": [
        {
          "internalType": "address payable",
          "name": "",
          "type": "address"
        }
      ],
      "stateMutability": "view",
      "type": "function"
    },
    {
      "inputs": [],
      "name": "depositor",
      "outputs": [
        {
          "internalType": "address",
          "name": "",
          "type": "address"
        }
      ],
      "stateMutability": "view",
      "type": "function"
    },
    {
      "inputs": [],
      "name": "isApproved",
      "outputs": [
        {
          "internalType": "bool",
          "name": "",
          "type": "bool"
        }
      ],
      "stateMutability": "view",
      "type": "function"
    }
  ],
  "bytecode": "0x608060405260405162000ae438038062000ae483398181016040528101906200002991906200029f565b8073ffffffffffffffffffffffffffffffffffffffff163373ffffffffffffffffffffffffffffffffffffffff16036200009a576040517f08c379a000000000000000000000000000000000000000000000000000000000815260040162000091906200036d565b60405180910390fd5b8173ffffffffffffffffffffffffffffffffffffffff163373ffffffffffffffffffffffffffffffffffffffff16036200010b576040517f08c379a00000000000000000000000000000000000000000000000000000000081526004016200010290620003df565b60405180910390fd5b81600260006101000a81548173ffffffffffffffffffffffffffffffffffffffff021916908373ffffffffffffffffffffffffffffffffffffffff16021790555080600160006101000a81548173ffffffffffffffffffffffffffffffffffffffff021916908373ffffffffffffffffffffffffffffffffffffffff160217905550336000806101000a81548173ffffffffffffffffffffffffffffffffffffffff021916908373ffffffffffffffffffffffffffffffffffffffff1602179055506000600260146101000a81548160ff021916908315150217905550505062000401565b600080fd5b600073ffffffffffffffffffffffffffffffffffffffff82169050919050565b60006200022282620001f5565b9050919050565b620002348162000215565b81146200024057600080fd5b50565b600081519050620002548162000229565b92915050565b60006200026782620001f5565b9050919050565b62000279816200025a565b81146200028557600080fd5b50565b60008151905062000299816200026e565b92915050565b60008060408385031215620002b957620002b8620001f0565b5b6000620002c98582860162000243565b9250506020620002dc8582860162000288565b9150509250929050565b600082825260208201905092915050565b7f62656e656669636961727920616e64206f776e65722063616e6e6f742062652060008201527f73616d6500000000000000000000000000000000000000000000000000000000602082015250565b600062000355602483620002e6565b91506200036282620002f7565b604082019050919050565b60006020820190508181036000830152620003888162000346565b9050919050565b7f6172626974657220616e64206f776e65722063616e6e6f742062652073616d65600082015250565b6000620003c7602083620002e6565b9150620003d4826200038f565b602082019050919050565b60006020820190508181036000830152620003fa81620003b8565b9050919050565b6106d380620004116000396000f3fe608060405234801561001057600080fd5b50600436106100575760003560e01c806312424e3f1461005c57806328f371aa1461006657806338af3eed14610084578063c7c4ff46146100a2578063fe25e00a146100c0575b600080fd5b6100646100de565b005b61006e6102d1565b60405161007b919061045b565b60405180910390f35b61008c6102e4565b60405161009991906104b7565b60405180910390f35b6100aa61030a565b6040516100b791906104f3565b60405180910390f35b6100c861032e565b6040516100d591906104f3565b60405180910390f35b61013f6040518060400160405280600881526020017f617262697465723a000000000000000000000000000000000000000000000000815250600260009054906101000a900473ffffffffffffffffffffffffffffffffffffffff16610354565b61017e6040518060400160405280600b81526020017f6d73672e73656e6465723a00000000000000000000000000000000000000000081525033610354565b600260009054906101000a900473ffffffffffffffffffffffffffffffffffffffff1673ffffffffffffffffffffffffffffffffffffffff163373ffffffffffffffffffffffffffffffffffffffff161461020e576040517f08c379a00000000000000000000000000000000000000000000000000000000081526004016102059061056b565b60405180910390fd5b6001600260146101000a81548160ff0219169083151502179055506000479050600160009054906101000a900473ffffffffffffffffffffffffffffffffffffffff1673ffffffffffffffffffffffffffffffffffffffff166108fc479081150290604051600060405180830381858888f19350505050158015610296573d6000803e3d6000fd5b507f3ad93af63cb7967b23e4fb500b7d7d28b07516325dcf341f88bebf959d82c1cb816040516102c691906105a4565b60405180910390a150565b600260149054906101000a900460ff1681565b600160009054906101000a900473ffffffffffffffffffffffffffffffffffffffff1681565b60008054906101000a900473ffffffffffffffffffffffffffffffffffffffff1681565b600260009054906101000a900473ffffffffffffffffffffffffffffffffffffffff1681565b6103ec828260405160240161036a92919061063e565b6040516020818303038152906040527f319af333000000000000000000000000000000000000000000000000000000007bffffffffffffffffffffffffffffffffffffffffffffffffffffffff19166020820180517bffffffffffffffffffffffffffffffffffffffffffffffffffffffff83818316178352505050506103f0565b5050565b610407816103ff61040a61042b565b63ffffffff16565b50565b60006a636f6e736f6c652e6c6f679050600080835160208501845afa505050565b610436819050919050565b61043e61066e565b565b60008115159050919050565b61045581610440565b82525050565b6000602082019050610470600083018461044c565b92915050565b600073ffffffffffffffffffffffffffffffffffffffff82169050919050565b60006104a182610476565b9050919050565b6104b181610496565b82525050565b60006020820190506104cc60008301846104a8565b92915050565b60006104dd82610476565b9050919050565b6104ed816104d2565b82525050565b600060208201905061050860008301846104e4565b92915050565b600082825260208201905092915050565b7f6e6f742061726269746572000000000000000000000000000000000000000000600082015250565b6000610555600b8361050e565b91506105608261051f565b602082019050919050565b6000602082019050818103600083015261058481610548565b9050919050565b6000819050919050565b61059e8161058b565b82525050565b60006020820190506105b96000830184610595565b92915050565b600081519050919050565b60005b838110156105e85780820151818401526020810190506105cd565b60008484015250505050565b6000601f19601f8301169050919050565b6000610610826105bf565b61061a818561050e565b935061062a8185602086016105ca565b610633816105f4565b840191505092915050565b600060408201905081810360008301526106588185610605565b905061066760208301846104e4565b9392505050565b7f4e487b7100000000000000000000000000000000000000000000000000000000600052605160045260246000fdfea2646970667358221220638653da8f09b516d97e13277258616c9f0c5502a560319b149628d3298e487064736f6c63430008130033",
  "linkReferences": {},
  "deployedLinkReferences": {}
}